:03000000020006F5
:03005F0002000399
:0300030002008078
:2000620085820885830990000A120092AE82AF838E048F051EBEFF011FEC4D70F322D2808D
:100082009007D0120062C2809007D012006280EE08
:06003500E478FFF6D8FD9F
:200013007900E94400601B7A009000B3780175A000E493F2A308B8000205A0D9F4DAF275E0
:02003300A0FF2C
:1D009200E5828508F0A4C582C0F08509F0A4D0F025F0C5838508F0A42583F5832230
:20003B007800E84400600A790175A000E4F309D8FC7800E84400600C7900900001E4F0A3C3
:04005B00D8FCD9FAFA
:0D0006007581091200AFE58260030200035E
:0400AF007582002234
:00000001FF
