:03000000020006F5
:03005F0002000399
:0300030002009068
:20006200758901C28DC28C22AE82AF838E048F051EBEFF011FEC4D6011758CFF758AA3D21F
:200082008C308DFDC28CC28D80E222C280227E007F00C007C00612006212008DD006D00749
:2000A200C374649EE49F401AD280900014C007C00612006AC2809000B412006AD006D0077A
:2000C200802DC374C89EE49F402174649EE49F501AD280900005C007C00612006AC28090CB
:1600E20000C312006AD006D00780047E007F000EBE00AD0F80AAE9
:06003500E478FFF6D8FD9F
:200013007900E94400601B7A009000FC780175A000E493F2A308B8000205A0D9F4DAF27597
:02003300A0FF2C
:20003B007800E84400600A790175A000E4F309D8FC7800E84400600C7900900001E4F0A3C3
:04005B00D8FCD9FAFA
:0D0006007581071200F8E582600302000317
:0400F80075820022EB
:00000001FF
