:03000000020006F5
:03005F0002000399
:030003000201CF28
:20006200758901C2B4C28DC28C22AE82AF8374FFC39EFE74FF9F4E24FF92B4D28C308DFD35
:20008200C28CC28D2290000502006CD280D281120087C281120087C28022C280C281120087
:2000A20087D281020087C281D280120087C28022D281D280120087C28022D280D2817E0084
:2000C2007F0030810FC374FF9EE49F40070EBE00F10F80EE30810712009C90000022C280AD
:2000E20090000122AE825306807F007C007D00EE4F7004C2818002D281C280C007C006C072
:2001020005C004120087D004D005D006D007D280A281E43325E024FF92810CBC00010DC3C5
:20012200EC9408ED6480948040C50200BC7E007F007C007D00C007C006C005C004120087E8
:20014200D004D005D006D007D280A281E433FA7B00EE4202EF4203EA2AFEEB33FFC2800C63
:20016200BC00010DC3EC9408ED6480948040C6C007C0061200A8D006D0078E828F8322AE97
:2001820082AF83C007C00612008D9000A01200E69000001200E6D006D0078E828F831200EC
:2001A200E602009C12008D9000A11200E69000001200E612008D12012FAE82AF83C007C09F
:2001C2000612009CD006D0078E828F83221200629000AA1201811200871201A6AE828E9096
:0201E20080FE9D
:06003500E478FFF6D8FD9F
:200013007900E94400601B7A009001E8780175A000E493F2A308B8000205A0D9F4DAF275AA
:02003300A0FF2C
:20003B007800E84400600A790175A000E4F309D8FC7800E84400600C7900900001E4F0A3C3
:04005B00D8FCD9FAFA
:0D0006007581071201E4E58260030200032A
:0401E40075820022FE
:00000001FF
