:03000000020006F5
:03005F0002000399
:030003000200C731
:20006200C2A1C2A222AE82AF838E048F051EBEFF011FEC4D70F322AF827D007E00EF5401E4
:2000820024FF92A2EFC313FF90000AC007C006C005120067D2A290000A120067C2A2900063
:2000A2000A120067D005D006D0070DBD00010EC3ED9408EE6480948040C3D2A190000A120C
:1000C2000067C2A12212006275820212007980FECC
:06003500E478FFF6D8FD9F
:200013007900E94400601B7A009000D6780175A000E493F2A308B8000205A0D9F4DAF275BD
:02003300A0FF2C
:20003B007800E84400600A790175A000E4F309D8FC7800E84400600C7900900001E4F0A3C3
:04005B00D8FCD9FAFA
:0D0006007581071200D2E58260030200033D
:0400D2007582002211
:00000001FF
