:03000000020006F5
:03005F0002000399
:0300030002008D6B
:2000620085820885830990000A1200ACAE82AF837C007D00C3EC9EED64808FF063F08095A6
:20008200F050070CBC00ED0D80EA22D2A790000A1200627580FE90000A1200627580FD90BF
:0A00A200000A1200627580FB80E383
:06003500E478FFF6D8FD9F
:200013007900E94400601B7A009000CD780175A000E493F2A308B8000205A0D9F4DAF275C6
:02003300A0FF2C
:1D00AC00E5828508F0A4C582C0F08509F0A4D0F025F0C5838508F0A42583F5832216
:20003B007800E84400600A790175A000E4F309D8FC7800E84400600C7900900001E4F0A3C3
:04005B00D8FCD9FAFA
:0D0006007581091200C9E582600302000344
:0400C900758200221A
:00000001FF
