:03000000020006F5
:03005F0002000399
:030003000200AA4E
:2000620075B0FFC291D292D29385B0822275B0FFC291D292D293E5B020E7FB22AF82C00774
:2000820012006FD007C293C291C2928FB0D293C29322AF82C00712006FD007C293D291C225
:2000A200928FB0D293C29322750856750969750A73750B75750C61750D6C750E20750F47B2
:2000C20075104D75115175120075823812007E75820C12007E75820612007E758201120005
:2000E2007E75828212007E7E007F00EE2408F9E7FD60148D82C007C006120094D006D00720
:090102000EBE00E70F80E480FE50
:06003500E478FFF6D8FD9F
:200013007900E94400601B7A0090010F780175A000E493F2A308B8000205A0D9F4DAF27583
:02003300A0FF2C
:20003B007800E84400600A790175A000E4F309D8FC7800E84400600C7900900001E4F0A3C3
:04005B00D8FCD9FAFA
:0D00060075811212010BE5826003020003F8
:04010B0075820022D7
:00000001FF
