:0600000002000902008D60
:0300620002000693
:0300060002007E77
:20006500AE82AF838E048F051EBEFF011FEC4D70F322D288D2A8D2AF22D280120077901345
:2000850088120065B28080F6C020C0E0C0F0C082C083C007C006C005C004C003C002C001A3
:2000A500C000C0D075D000907530120065B2A0D0D0D000D001D002D003D004D005D006D073
:0C00C50007D083D082D0F0D0E0D02032F1
:06003800E478FFF6D8FD9C
:200016007900E94400601B7A009000D5780175A000E493F2A308B8000205A0D9F4DAF275BB
:02003600A0FF29
:20003E007800E84400600A790175A000E4F309D8FC7800E84400600C7900900001E4F0A3C0
:04005E00D8FCD9FAF7
:0D0009007581201200D1E58260030200061F
:0400D1007582002212
:00000001FF
