:03000000020006F5
:03005F0002000399
:030003000200896F
:10006200758901758C00758A00D28C22AE82AF83AD
:100072008E048F051EBEFF011FEC4D6009108D021C
:1000820080FBD28C80EA2212006290000E12006E77
:0C009200D2A090000E12006EC2A080EE02
:06003500E478FFF6D8FD9F
:100013007900E94400601B7A009000A2780175A082
:1000230000E493F2A308B8000205A0D9F4DAF2754C
:02003300A0FF2C
:10003B007800E84400600A790175A000E4F309D860
:10004B00FC7800E84400600C7900900001E4F0A318
:04005B00D8FCD9FAFA
:0D00060075810712009EE582600302000371
:04009E007582002245
:00000001FF
