:03000000020006F5
:03005F0002000399
:0300030002008573
:20006200758901758C00758A00D28C22AE82AF838E048F051EBEFF011FEC4D6005108DF051
:2000820080FB221200627E057F00EE4F60071EBEFF011F8002C28C90000EC007C00612009F
:1100A2006ED2A090000E12006ED006D007C2A080D9E7
:06003500E478FFF6D8FD9F
:200013007900E94400601B7A009000B7780175A000E493F2A308B8000205A0D9F4DAF275DC
:02003300A0FF2C
:20003B007800E84400600A790175A000E4F309D8FC7800E84400600C7900900001E4F0A3C3
:04005B00D8FCD9FAFA
:0D0006007581071200B3E58260030200035C
:0400B3007582002230
:00000001FF
