:03000000020006F5
:03005F0002000399
:0300030002007484
:20006200AE82AF838E048F051EBEFF011FEC4D70F322C280C281C2829086A0120062D280F8
:20008200C281C2829086A0120062C280D281C2829086A0120062D280D281C2829086A012F9
:2000A2000062C280C281D2829086A0120062D280C281D2829086A0120062C280D281D282DD
:1400C2009086A0120062D280D281D2829086A0120062809EBF
:06003500E478FFF6D8FD9F
:200013007900E94400601B7A009000DA780175A000E493F2A308B8000205A0D9F4DAF275B9
:02003300A0FF2C
:20003B007800E84400600A790175A000E4F309D8FC7800E84400600C7900900001E4F0A3C3
:04005B00D8FCD9FAFA
:0D0006007581071200D6E582600302000339
:0400D600758200220D
:00000001FF
