:03000000020006F5
:03005F0002000399
:0300030002007484
:20006200AE82AF838E048F051EBEFF011FEC4D70F322D280C281C282900064120062C280BA
:0C008200D281C28290006412006280E60D
:06003500E478FFF6D8FD9F
:200013007900E94400601B7A00900092780175A000E493F2A308B8000205A0D9F4DAF27501
:02003300A0FF2C
:20003B007800E84400600A790175A000E4F309D8FC7800E84400600C7900900001E4F0A3C3
:04005B00D8FCD9FAFA
:0D00060075810712008EE582600302000381
:04008E007582002255
:00000001FF
