:03000000020006F5
:03005F0002000399
:0300030002007D7B
:20006200AE82AF838E048F051EBEFF011FEC4D70F322C290C291C292C29322120074D290E5
:20008200D280C281C282900064120062C280D281C282900064120062C290D291C280C281A2
:2000A200C282900064120062D280C281C282900064120062D280D281C28290006412006200
:2000C200C280C281D282900064120062C280D281D282900064120062C291D292D280D28130
:2000E200D282900064120062C292D293C280C281C282900064120062D280C281C2829000EF
:1501020064120062C280D281C282900064120062C293020080F8
:06003500E478FFF6D8FD9F
:200013007900E94400601B7A0090011B780175A000E493F2A308B8000205A0D9F4DAF27577
:02003300A0FF2C
:20003B007800E84400600A790175A000E4F309D8FC7800E84400600C7900900001E4F0A3C3
:04005B00D8FCD9FAFA
:0D000600758107120117E5826003020003F7
:0401170075820022CB
:00000001FF
